:1000000019C033C04AC072C030C02FC0D0C004C1B4
:100010002CC02BC02AC029C028C029C126C025C099
:10002000C3C123C022C021C020C01FC01EC01DC02C
:100030001CC01BC011241FBECFEFCDBFDFE3DEBF4E
:100040001FE3A0E0BFE3E4EDF7E002C005900D92EE
:10005000A030B107D9F72FE3A0E0BFE301C01D92A4
:10006000A730B207E1F7F3D1B3C300C01F920F92DC
:100070000FB60F9211248F93EF93FF93F894E0E55E
:10008000F0E080818E7F80837894FF91EF918F9153
:100090000F900FBE0F901F9018951F920F920FB6E2
:1000A0000F9211248F93EF93FF93F894E0E5F0E023
:1000B00080818E7F8083E0E8F0E081E08287838525
:1000C000882331F08091063F80618093063F05C010
:1000D0008091063F8F7E8093063F7894FF91EF9149
:1000E0008F910F900FBE0F901F9018951F920F9237
:1000F0000FB60F9211248F939F93EF93FF93F89471
:10010000E0E5F0E080818E7F80838091090481FFAB
:100110002CC0E0E0F4E08185826081878091063F19
:1001200080FD0AC08091080481FD06C08091063FD1
:1001300081608093063F19C08091080481FF15C03B
:100140008091063F80FF11C08091063F8E7F809393
:10015000063F9091063F86E089278093063FE0E4C2
:10016000F1E083818360838312828091090483FF9D
:1001700014C08091080483FF06C08091063F8F77EA
:100180008093063F05C08091063F80688093063FBC
:10019000E0E0F4E08185886081877894FF91EF91B9
:1001A0009F918F910F900FBE0F901F9018951F92E7
:1001B0000F920FB60F9211248F939F93EF93FF939B
:1001C000F894E0E5F0E080818E7F8083E0E4F1E068
:1001D00083818360838312828091080481FD12C031
:1001E0008091063F80FF0EC09091063F88E08927EE
:1001F0008093063F8FEF8093043F8091063F8E7F70
:100200008093063F7894FF91EF919F918F910F908B
:100210000FBE0F901F9018951F920F920FB60F925E
:1002200011248F93EF93FF93F894E0E5F0E0808141
:100230008E7F808381E0809353018091033F8331DF
:1002400040F08091063F80628093063F1092033F0A
:1002500005C08091033F8F5F8093033F7894FF91A7
:10026000EF918F910F900FBE0F901F9018951F92D6
:100270000F920FB60F9211248F939F93EF93FF93DA
:10028000F894E0E4FAE086818160868380818E7F45
:1002900080838091023F8B3008F466C01092023F49
:1002A0008091013F90E009978CF18091080481FDD5
:1002B0001DC08091063F80FF19C08091063F877F57
:1002C0008093063F8FEF8093043F8091063F8E7F9F
:1002D0008093063FE0E7F6E086818E7F868381E0AB
:1002E0008783E0E4FAE0808180833BC0E0E0F4E0D3
:1002F00084818B7B84838091063F897F8093063F36
:10030000E0E4FAE08081816080832BC08091013F2E
:1003100090E00897BCF4E0E0F4E084818464848396
:100320008091063F86608093063FE0E4FAE0128603
:1003300013868091063F88608093063F81E080931A
:1003400077060FC0E0E0F4E084818B7B84838091AA
:10035000063F897F8093063FE0E4FAE08081816078
:1003600080831092013F16C00000000000008091C1
:1003700077069091013F82958170890F8093013FAC
:100380008091023F8F5F8093023FE0E4FAE080813A
:10039000816080837894FF91EF919F918F910F906E
:1003A0000FBE0F901F9018951F920F920FB60F92CD
:1003B00011248F93EF93FF93F894E0E5F0E08081B0
:1003C0008E7F808381E0809377068091063F83FF54
:1003D00020C08FEF8093053FE0E0F4E084818B7BC9
:1003E00084838091063F897F8093063F1092053F6A
:1003F0008091063F877F8093063FE0E7F6E08681A5
:100400008E7F868381E08783E0E4FAE080818160EB
:1004100080837894FF91EF918F910F900FBE0F9092
:100420001F90189585E0E0E0F4E094E49483A3E263
:10043000B4EF1197F1F700C000001482A3E2B4EF0B
:100440001197F1F700C00000815081F70895F894EA
:1004500086E08093063FE0E6F0E0108287E081834B
:10046000128282E0808FE0E8F0E085E1808383E023
:10047000818381E08087C3EFD1E02197F1F700C04D
:100480000000809310018091080481FF06C08AE873
:10049000809381068093003F33C0E0EAF0E080E47F
:1004A000808382E08183E0E0F6E085E08083118252
:1004B00013821482158287E0868386E4828389EF23
:1004C00090E00197F1F700C0000081E0808780850F
:1004D000882339F091E29A95F1F700008085811127
:1004E000F9CFE0E0F6E080898093810680898093EF
:1004F000003F168212821082E0EAF0E01082118240
:10050000E0E0F4E084E4808314828CDF0000E0E427
:10051000F1E08EE1828713868BEB84878AEA8587F8
:100520001086118681E0878389EA808389E6808B43
:1005300006C0C3EFD1E02197F1F700C00000818130
:100540008111F7CF81898111F4CFE0E0F4E081E0FF
:10055000818B838B94E0928B968BA0E8B0E025E0B2
:1005600019962C931997E0EAF0E090838183D0E10B
:10057000DA95F1F700C091E890938006E6E0EA95FD
:10058000F1F700C0E0E7F6E09EEB908393E0928302
:10059000908191609083E0E4F1E099EA9083908902
:1005A0009160908BE0E4FAE090E4908311821482F1
:1005B00010861286138690E7948797E19587858346
:1005C0001B968C918823A9F08091063F80638093CD
:1005D000063FA0E4B1E063E041E0E0E0F4E00F2E8C
:1005E000F0E7EF2EF6E0FF2EF02D20E530E0542F5F
:1005F0000BC08091063F8F7E8093063F8091063F1F
:100600008F7D8093063FE5CFF8948091063F80FF71
:100610001DC018961C92189719961C92199711963E
:100620008C911197882359F089EF90E00197F1F7A9
:1006300000C0000011968C9111978111F5CF129690
:100640004C93129713966C93139708C08091063FB2
:1006500012961C92129713966C9313978091043FF5
:100660008823D1F100008091063F83FF19C0848167
:100670008B7B848374E0848180648483C3E2D4EFC1
:100680002197F1F700C0000084818F7B848383E28F
:1006900094EF0197F1F700C00000715061F71AC0A4
:1006A0008091063F84818B7B848374E084818460A5
:1006B0008483C3E2D4EF2197F1F700C00000848166
:1006C0008B7F848383E294EF0197F1F700C00000F1
:1006D000715061F71092043F8091063F83FF05C07F
:1006E000E7018E8181608E8306C08091063FE7011D
:1006F0008E818E7F8E838091063F85FF2EC08091F4
:10070000063F808583FF29C08091063F8F7D8093BF
:10071000063F84818B7B848394E08481806484831E
:1007200084818B7F8483DFE916E871E0D15010402B
:100730007040E1F700C0000084818460848384817C
:100740008F7B84838FE9C6E8D1E08150C040D040E0
:10075000E1F700C00000915001F78091063F84FF4F
:1007600010C08091063F808583FF0BC052968C910C
:100770005297816052968C93529753964C9353970D
:100780000CC052968C9152978E7F52968C935297B2
:1007900053964C9353971092033F8091063F82FFEC
:1007A00004C084818064848303C084818F7B8483BC
:1007B0008091063F81FF04C084818460848303C0EC
:1007C00084818B7F84837894E901588388951CCF3A
:0407D000F894FFCFCB
:00000001FF
